:030000000205BD39
:0C05BD00787FE4F6D8FD75814D0206043D
:10002E0000EF00C500AF00A00096008E0087008193
:10003E00007C007800740071006D006B0068006534
:10004E0000630061005F005D005B005A00580056BF
:10005E0000550054005200510050004E004D004C0F
:10006E00004B004A00490048004700460045004446
:10007E0000430043004200410040003F003F003E6D
:10008E00003D003D003C003B003A003A003900398B
:10009E0000380037003700360036003500340034A3
:1000AE0000330033003200320031003100300030B6
:1000BE00002F002F002E002E002D002D002C002CC6
:1000CE00002B002B002A002A0029002900290028D5
:1000DE0000280027002700260026002600250025E0
:1000EE0000240024002400230023002200220022EA
:1000FE0000210021002000200020001F001F001FF3
:10010E00001E001E001D001D001D001C001C001CFA
:10011E00001B001B001B001A001A001A0019001900
:10012E000018001800180017001700170016001608
:10013E00001600150015001500140014001400130D
:10014E000013001300120012001200110011001013
:10015E0000100010000F000F000F000E000E000E1A
:10016E00000D000D000D000C000C000C000B000B20
:10017E00000B000A000A0009000900090008000827
:10018E00000800070007000700060006000500052E
:10019E000036000400030003000300020002000109
:1001AE000001000100000000FFFFFFFFFFFFFFFE48
:1001BE00FFFEFFFDFFFDFFFCFFFCFFFBFFFBFFFA59
:1001CE00FFFAFFF9FFF9FFF8FFF8FFF7FFF7FFF669
:1001DE00FFF6FFF5FFF5FFF4FFF3FFF3FFF2FFF27B
:1001EE00FFF1FFF0FFF0FFEFFFEEFFEDFFEDFFEC95
:1001FE00FFEBFFEAFFE9FFE8FFE7FFE6FFE5FFE4BD
:10020E00FFE3FFE2FFE0FFDFFFDDFFDCFFDAFFD8F9
:0C021E00FFD5FFD2FFCEFFC9FFC1016970
:100794000210000002120000021E000002160001F6
:1007A400024A0000024C0000042600000000042C51
:1007B400000000000222000002140000021C0000DD
:1007C400021A000002180000024200000220000089
:1007D40002480001022A0000024400000246000010
:1007E40010303F065B4F666D7D077F6F777C395E07
:0207F400797119
:08082200F8E6F5807F0A7E0074
:10082A00EF1FAA0670011E4A60107C007D3CED1D78
:0A083A00AA0470011C4A60E880F473
:010844002291
:1007F700EFA2E713A2E71324FF92A2EF75F004120A
:1008070003A4AEF0EEA2E71324FF92A1EF75F00266
:0B0817001203A4AFF0EF24FF92A02218
:1006C500C3E52264809480E4500BF580FF1207F7A0
:1006D500758040800FF5807F051207F77430252B54
:1006E500F8E6F580120826E4F5807F061207F77410
:1006F500302545120822E4F5807F071207F774308C
:100705002547120822E4F5807F011207F77430258A
:1007150049120822E4F5807F031207F77430254358
:0B072500F8E6F5807F0A7E0002082A3B
:10084500E4F5937594FFF5957596FFC2A375A8A871
:0C085500758901758DFC758B17D28E2201
:0F000300759DFFE4F5BDF5BE75BC8B759720228A
:0F086100759DFFE4F5BDF5BE75BC8C7597202223
:10073000C3E52264809480500DC3E49523F541E421
:100740009522F5408006852240852341AE40AF4189
:100750007C037DE81203C67E007F64CFCDCFCECC74
:10076000CE1203C68E2A8F2BAE40AF417C007D6433
:100770001203C67E007F0ACFCDCFCECCCE1203C6E9
:100780008E448F45AE40AF417C007D0A1203C68C7B
:04079000468D472229
:03001B000204E9F3
:1004E900C0E0C0D075D000C002C004C005C006C0BD
:1004F90007E51764014516700512086180031200AB
:1005090003C3E49517F517E49516F516E549640153
:1005190045487068C3E5159428E5149400501BC339
:10052900E51D94D0E51C94075008051DE51D7002D2
:10053900051C7518007519008019C3E51B94D0E5D1
:100549001A94075008051BE51B7002051A75180057
:10055900751901E51BB4D024E51AB4071FE51DB4CC
:10056900D01AE51CB40715E51964014518700DF595
:100579001CF51DF51AF51BF520752101E52164010E
:100589004520700CE549640145487004B2B4800205
:10059900C2B420A4107F647E0012082A20A4067524
:1005A9002000752100D007D006D005D004D002D094
:0405B900D0D0E0328C
:03002B0002022AA4
:10022A00C0E0C0F0C083C082C0D075D008051FE509
:10023A001F7002051E75A800D3E51F94D0E51E9411
:10024A00075003020316E517640145167069E54C69
:10025A0013FEE54D13FFEF252FFFEE352EFEE43595
:10026A002DFDE4352CFCC00EC00FAE4CAF4DAB0FCC
:10027A00AA0EE4F9F8D00FD00E1204578E248F2557
:10028A00E52525E0FFE52433FE742C2FF582740062
:10029A003EF583E493F522740193F523752F0075D7
:1002AA002E00752D00752C00754C00754D00751EBD
:1002BA0000751F00120730E517B4FF50E516B4FFAA
:1002CA004BE54AC313FEE54B13FFEF2529FFEE3535
:1002DA0028FEE43527FDE43526FCC00EC00FAE4AE1
:1002EA00AF4BAB0FAA0EE4F9F8D00FD00E12045799
:1002FA008E148F157529007528007527007526003C
:10030A00754A00754B00751E00751F00E5176401DC
:10031A004516703C054DE54D7002054CAFBDEFFE2C
:10032A00ADBE7C00E42DFFEC3EFEEF7802CEC31397
:10033A00CE13D8F9F5258E24FFE4FCFDE52F2FF521
:10034A002FE52E3EF52EED352DF52DEC352CF52C21
:10035A00E517B4FF31E516B4FF2C054BE54B7002E7
:10036A00054AAFBDEFFEADBE7C00E42DFFEC3EFEBC
:10037A00E4FDE5292FF529E5283EF528ED3527F591
:10038A0027EC3526F52653BCEF43BC0875A8A8D040
:0A039A00D0D082D083D0F0D0E03242
:1006490012084520B233E511451070327F0AFE12B7
:10065900082A20B2290543E54370020542640A4588
:10066900427007F542F543758DFCC374FC9543F55B
:100679008D7510007511018005E4F510F51120B391
:1006890031E513451270307F0AFE12082A20B3277C
:10069900E54964014548700CE52145207006F54897
:1006A900F5498006754800754901751200751301F1
:0C06B9008005E4F512F5131206C58087D9
:1005C900020649E493A3F8E493A34003F68001F2F9
:1005D90008DFF48029E493A3F85407240CC8C33333
:1005E900C4540F4420C8834004F456800146F6DF02
:1005F900E4800B0102040810204080900794E47EF7
:10060900019360BCA3FF543F30E509541FFEE493F6
:10061900A360010ECF54C025E060A840B8E493A3BD
:10062900FAE493A3F8E493A3C8C582C8CAC583CAE8
:10063900F0A3C8C582C8CAC583CADFE9DEE780BEA0
:0107F6000002
:1003A400C2D530F707B2D563F0FF05F030E70CB2E1
:1003B400D5F4048463F0FF05F080018430D502F4A1
:0203C400042211
:1003C600BC000BBE0029EF8DF084FFADF022E4CC1B
:1003D600F875F008EF2FFFEE33FEEC33FCEE9DECE4
:1003E600984005FCEE9DFE0FD5F0E9E4CEFD22ED2A
:1003F600F8F5F0EE8420D21CFEADF075F008EF2F74
:10040600FFED33FD4007985006D5F0F222C398FD64
:050416000FD5F0EA2201
:10041B0075F008758200EF2FFFEE33FECD33CDCC98
:10042B0033CCC58233C5829BED9AEC99E58298401B
:10043B000CF582EE9BFEED9AFDEC99FC0FD5F0D6F8
:10044B00E4CEFBE4CDFAE4CCF9A88222B800C1B922
:10045B000059BA002DEC8BF084CFCECDFCE5F0CB60
:10046B00F97818EF2FFFEE33FEED33FDEC33FCEB99
:10047B0033FB10D703994004EB99FB0FD8E5E4F954
:10048B00FA227818EF2FFFEE33FEED33FDEC33FC41
:10049B00C933C910D7059BE99A4007EC9BFCE99A35
:1004AB00F90FD8E0E4C9FAE4CCFB2275F010EF2F7A
:1004BB00FFEE33FEED33FDCC33CCC833C810D7077A
:1004CB009BEC9AE899400AED9BFDEC9AFCE899F8B5
:0E04DB000FD5F0DAE4CDFBE4CCFAE4C8F92248
:00000001FF
